{"abi":[{"type":"constructor","inputs":[],"stateMutability":"nonpayable"},{"type":"function","name":"count","inputs":[],"outputs":[{"name":"","type":"int256","internalType":"int256"}],"stateMutability":"view"},{"type":"function","name":"decrement","inputs":[],"outputs":[],"stateMutability":"nonpayable"},{"type":"function","name":"decrementCount","inputs":[],"outputs":[{"name":"","type":"uint256","internalType":"uint256"}],"stateMutability":"view"},{"type":"function","name":"getCount","inputs":[],"outputs":[{"name":"","type":"int256","internalType":"int256"}],"stateMutability":"view"},{"type":"function","name":"getStats","inputs":[],"outputs":[{"name":"","type":"int256","internalType":"int256"},{"name":"","type":"uint256","internalType":"uint256"},{"name":"","type":"uint256","internalType":"uint256"}],"stateMutability":"view"},{"type":"function","name":"increment","inputs":[],"outputs":[],"stateMutability":"nonpayable"},{"type":"function","name":"incrementCount","inputs":[],"outputs":[{"name":"","type":"uint256","internalType":"uint256"}],"stateMutability":"view"},{"type":"function","name":"owner","inputs":[],"outputs":[{"name":"","type":"address","internalType":"address"}],"stateMutability":"view"},{"type":"function","name":"reset","inputs":[],"outputs":[],"stateMutability":"nonpayable"},{"type":"event","name":"Decremented","inputs":[{"name":"by","type":"address","indexed":true,"internalType":"address"},{"name":"newValue","type":"int256","indexed":false,"internalType":"int256"}],"anonymous":false},{"type":"event","name":"Incremented","inputs":[{"name":"by","type":"address","indexed":true,"internalType":"address"},{"name":"newValue","type":"int256","indexed":false,"internalType":"int256"}],"anonymous":false},{"type":"event","name":"Reset","inputs":[{"name":"by","type":"address","indexed":true,"internalType":"address"}],"anonymous":false}],"bytecode":{"object":"0x6080604052348015600e575f5ffd5b50335f5f6101000a81548173ffffffffffffffffffffffffffffffffffffffff021916908373ffffffffffffffffffffffffffffffffffffffff1602179055505f6001819055505f6002819055505f600381905550610646806100705f395ff3fe608060405234801561000f575f5ffd5b5060043610610091575f3560e01c8063b7f90f1211610064578063b7f90f12146100f9578063c59d484714610117578063d09de08a14610137578063d826f88f14610141578063e5071b8e1461014b57610091565b806306661abd146100955780632baeceb7146100b35780638da5cb5b146100bd578063a87d942c146100db575b5f5ffd5b61009d610169565b6040516100aa91906103bf565b60405180910390f35b6100bb61016f565b005b6100c56101ef565b6040516100d29190610417565b60405180910390f35b6100e3610213565b6040516100f091906103bf565b60405180910390f35b61010161021c565b60405161010e9190610448565b60405180910390f35b61011f610222565b60405161012e93929190610461565b60405180910390f35b61013f610239565b005b6101496102b9565b005b6101536103a1565b6040516101609190610448565b60405180910390f35b60015481565b60015f815480929190610181906104c3565b919050555060035f8154809291906101989061050a565b91905055503373ffffffffffffffffffffffffffffffffffffffff167fae8be08cbf9f57c52cd8fbe1273680c4fa7585f0427cb69f290d20ed53265b266001546040516101e591906103bf565b60405180910390a2565b5f5f9054906101000a900473ffffffffffffffffffffffffffffffffffffffff1681565b5f600154905090565b60035481565b5f5f5f600154600254600354925092509250909192565b60015f81548092919061024b90610551565b919050555060025f8154809291906102629061050a565b91905055503373ffffffffffffffffffffffffffffffffffffffff167f4a84837fc09b3570718eb05b908531e89d9b052cc5775fa5231ef7b5a52804a36001546040516102af91906103bf565b60405180910390a2565b5f5f9054906101000a900473ffffffffffffffffffffffffffffffffffffffff1673ffffffffffffffffffffffffffffffffffffffff163373ffffffffffffffffffffffffffffffffffffffff1614610347576040517f08c379a000000000000000000000000000000000000000000000000000000000815260040161033e906105f2565b60405180910390fd5b5f6001819055505f6002819055505f6003819055503373ffffffffffffffffffffffffffffffffffffffff167f162f46783fcc741c289a7af5bd16474ace09d7e8a9d5fe1ac0d37b12afc0ccac60405160405180910390a2565b60025481565b5f819050919050565b6103b9816103a7565b82525050565b5f6020820190506103d25f8301846103b0565b92915050565b5f73ffffffffffffffffffffffffffffffffffffffff82169050919050565b5f610401826103d8565b9050919050565b610411816103f7565b82525050565b5f60208201905061042a5f830184610408565b92915050565b5f819050919050565b61044281610430565b82525050565b5f60208201905061045b5f830184610439565b92915050565b5f6060820190506104745f8301866103b0565b6104816020830185610439565b61048e6040830184610439565b949350505050565b7f4e487b71000000000000000000000000000000000000000000000000000000005f52601160045260245ffd5b5f6104cd826103a7565b91507f800000000000000000000000000000000000000000000000000000000000000082036104ff576104fe610496565b5b600182039050919050565b5f61051482610430565b91507fffffffffffffffffffffffffffffffffffffffffffffffffffffffffffffffff820361054657610545610496565b5b600182019050919050565b5f61055b826103a7565b91507f7fffffffffffffffffffffffffffffffffffffffffffffffffffffffffffffff820361058d5761058c610496565b5b600182019050919050565b5f82825260208201905092915050565b7f4f6e6c79206f776e65722063616e2072657365740000000000000000000000005f82015250565b5f6105dc601483610598565b91506105e7826105a8565b602082019050919050565b5f6020820190508181035f830152610609816105d0565b905091905056fea26469706673582212202bff96352666451c01b277f5c268a8fd26b5725a4e94449e8f5056567556868764736f6c63430008230033","linkReferences":{}},"methodIdentifiers":{"count()":"06661abd","decrement()":"2baeceb7","decrementCount()":"b7f90f12","getCount()":"a87d942c","getStats()":"c59d4847","increment()":"d09de08a","incrementCount()":"e5071b8e","owner()":"8da5cb5b","reset()":"d826f88f"},"id":19}